:020000040800F2
:1000000000000220C9A5000875A3000877A3000816
:1000100079A300087BA300087DA30008000000006E
:10002000000000000000000000000000C1C3000844
:100030007FA300080000000061C400080DC1000893
:1000400019A6000819A6000819A6000819A6000894
:1000500019A6000819A6000819A6000819A6000884
:1000600019A6000819A6000819A6000819A6000874
:1000700081A3000819A6000891A3000819A600088A
:1000800019A6000819A6000819A6000819A6000854
:1000900019A6000819A6000819A6000819A6000844
:1000A00019A60008A1A3000819A6000819A60008AF
:1000B00019A6000819A6000819A6000819A6000824
:1000C00019A6000819A6000819A6000819A6000814
:1000D00019A6000819A6000819A60008B1A300086F
:1000E00019A6000819A6000819A6000819A60008F4
:1000F00019A6000819A6000819A6000819A60008E4
:1001000019A6000819A6000819A6000819A60008D3
:1001100019A6000819A6000819A6000819A60008C3
:1001200019A6000819A6000819A6000819A60008B3
:1001300019A6000819A6000819A6000819A60008A3
:1001400019A6000819A6000819A6000819A6000893
:1001500019A6000819A6000819A6000819A6000883
:1001600019A6000819A6000819A6000819A6000873
:1001700019A6000819A6000819A60008000000002A
:0801800019A6000819A60008E9
:1001C0000348044B834202D0034B03B118477047E6
:1001D000600A0020600A002000000000054806496F
:1001E0000B1AD90F01EBA301491002D0034B03B145
:1001F00018477047600A0020600A002000000000D5
:1002000010B5064C237843B9FFF7DAFF044B13B15E
:100210000448AFF300800123237010BD600A002062
:1002200000000000406F010808B5044B1BB10449F1
:100230000448AFF30080BDE80840CFE700000000AD
:10024000640A0020406F01087BB972B90029BEBF63
:1002500000204FF0004106E008BF00281CBF6FF0EF
:1002600000414FF0FF3000F0BFB9ADF1080C6DE96F
:1002700004CE002909DB002B1ADB00F04DF8DDF875
:1002800004E0DDE9022304B07047404261EB410124
:10029000002B1BDB00F040F8DDF804E0DDE9022371
:1002A00004B0404261EB4101524263EB43037047AB
:1002B000524263EB430300F02FF8DDF804E0DDE980
:1002C000022304B0404261EB41017047524263EBAC
:1002D000430300F021F8DDF804E0DDE9022304B077
:1002E000524263EB4303704753B94AB9002908BF30
:1002F00000281CBF4FF0FF314FF0FF3000F074B901
:10030000ADF1080C6DE904CE00F006F8DDF804E06C
:10031000DDE9022304B070472DE9F047089D04464B
:100320008E46002B4DD18A42944669D9B2FA82F2A8
:1003300052B101FA02F3C2F1200120FA01F10CFAE4
:1003400002FC41EA030E94404FEA1C48210CBEFB1C
:10035000F8F61FFA8CF708FB16E341EA034306FBA5
:1003600007F199420AD91CEB030306F1FF3080F034
:100370001F81994240F21C81023E63445B1AA4B281
:10038000B3FBF8F008FB103344EA034400FB07F723
:10039000A7420AD91CEB040400F1FF3380F00A8164
:1003A000A74240F207816444023840EA0640E41B59
:1003B00000261DB1D4400023C5E900433146BDE805
:1003C000F0878B4209D9002D00F0EF800026C5E9A7
:1003D000000130463146BDE8F087B3FA83F6002EBF
:1003E0004AD18B4202D3824200F2F980841A61EB37
:1003F000030301209E46002DE0D0C5E9004EDDE755
:1004000002B9FFDEB2FA82F2002A40F09280A1EB3C
:100410000C014FEA1C471FFA8CFE0126200CB1FB91
:10042000F7F307FB131140EA01410EFB03F088428A
:1004300008D91CEB010103F1FF3802D2884200F217
:10044000CB804346091AA4B2B1FBF7F007FB1011A9
:1004500044EA01440EFB00FEA64508D91CEB040447
:1004600000F1FF3102D2A64500F2BB800846A4EBA2
:100470000E0440EA03409CE7C6F12007B34022FA8D
:1004800007FC4CEA030C20FA07F401FA06F31C43BC
:10049000F9404FEA1C4900FA06F3B1FBF9F8200CC9
:1004A0001FFA8CFE09FB181140EA014108FB0EF00F
:1004B000884202FA06F20BD91CEB010108F1FF3A5F
:1004C00080F08880884240F28580A8F1020861446B
:1004D000091AA4B2B1FBF9F009FB101144EA014179
:1004E00000FB0EFE8E4508D91CEB010100F1FF3424
:1004F0006CD28E456AD90238614440EA0840A0FBBC
:100500000294A1EB0E01A142C846A64656D353D091
:100510005DB1B3EB080261EB0E0101FA07F722FAB5
:1005200006F3F1401F43C5E9007100263146BDE8DE
:10053000F087C2F12003D8400CFA02FC21FA03F341
:10054000914001434FEA1C471FFA8CFEB3FBF7F0C2
:1005500007FB10360B0C43EA064300FB0EF69E42E7
:1005600004FA02F408D91CEB030300F1FF382FD280
:100570009E422DD9023863449B1B89B2B3FBF7F628
:1005800007FB163341EA034106FB0EF38B4208D901
:100590001CEB010106F1FF3816D28B4214D9023E42
:1005A0006144C91A46EA004638E72E46284605E760
:1005B0000646E3E61846F8E64B45A9D2B9EB020831
:1005C00064EB0C0E0138A3E74646EAE7204694E7C1
:1005D0004046D1E7D0467BE7023B614432E73046F4
:1005E00009E76444023842E7704700BF0023014630
:1005F0001A46184604F020BB10B4044C03460A46C1
:1006000020685DF8044B194600F002B80000002095
:1006100010B502FB01F100F0DDF8044668B150F8B6
:10062000042C22F00302043A242A18D8132A06D8EC
:1006300002460023C2E900339360204610BD002328
:100640001B2AC0E900330FD9242AC0E9023311BFA5
:1006500000F11002036100F118024361E9E7002193
:1006600000F0FCFB204610BD00F10802E1E700BFEE
:10067000014B1868704700BF0000002038B5084BD8
:10068000084D5B1B9C1007D0043B1D44013C55F8F2
:1006900004399847002CF9D1BDE8384016F056BC13
:1006A000487D0108447D010810B4044C03460A4605
:1006B00020685DF8044B194600F010B800000020D7
:1006C00000B5054B83B0014601AA186800F006F892
:1006D00003B05DF804FB00BF000000202DE9F047E7
:1006E000DFF8748006468946174605F00BFBD8F8FC
:1006F000005055B199F800301C4673B14C4602E0E9
:1007000014F8013F3BB13D2BFAD1304605F0FCFA1D
:100710000020BDE8F087A4EB090428680028F4D085
:100720002246494601F07AF928B92B681A5D3D2A1C
:1007300003EB040A04D055F8040F0028F0D1E4E7D5
:10074000D8F80030ED1AAD1030463D6005F0DCFA07
:100750000AF10100BDE8F087AC09002000B583B0C4
:1007600001AAFFF7BBFF03B05DF804FB70B50D4EA7
:100770000D4D761BB61006D0002455F8043B01340D
:100780009847A642F9D1094E094D761B16F0D8FBC1
:10079000B61006D0002455F8043B01349847A64211
:1007A000F9D170BD387D0108387D0108447D01080C
:1007B000387D0108024B0146186800F00BB800BFF5
:1007C00000000020024B0146186805F0D1BC00BFB4
:1007D000000000202DE9F04F01F10B06162E83B02A
:1007E000044624D8102900F2BA8000F089FB1026B4
:1007F00018220220B74F3A44A2F1080153688B42F5
:1008000000F0BA805A68D96822F003021A449D6841
:10081000E9608D60516841F001012046516003F1AB
:10082000080500F06FFB284603B0BDE8F08F36F0F6
:10083000070600F19480B14200F2918000F060FB65
:10084000B6F5FC7FC0F09681730A00F08F80042B10
:1008500000F26B81B30903F1390003F1380CC300D6
:100860009C4F3B44A3F108055B689D4206D10CE018
:10087000002980F22B81DB689D4206D05A6822F065
:100880000302911B0F29F3DD60463D69DFF848C282
:1008900065457CD06A6822F00302931B0F2B00F39E
:1008A0007781002BC7E904CC80F26881B2F5007F24
:1008B00080F01681D308796801334FEA521E012275
:1008C00002FA0EF20A4357F833E0C5F808E007EBE6
:1008D000C3010839E9607A6047F83350CEF80C500C
:1008E000831001219940914257D8114206D120F03E
:1008F00003004900114200F10400FAD007EBC009DF
:100900004D468646D5F80C80454508D119E1002BA7
:1009100080F22081D8F80C80454500F01281D8F88B
:10092000042022F00302931B0F2BF0DD2046D8E9B0
:10093000025408EB060146F00106C8F80460EC60BA
:10094000A56043F00104C7E90411C1E902CC4C6081
:1009500048F8023000F0D6FA08F1080502E00C234E
:1009600023600025284603B0BDE8F08F4FF40073E4
:1009700040204FF03F0C73E7D3689A4208BF023023
:100980007FF440AF3D69DFF850C1654582D17A6898
:100990008310012199409142A7D9BD686B6823F06B
:1009A0000308464503D8A8EB06030F2B7EDCDFF8CF
:1009B0002C91D7F80824D9F800300132334405EBE4
:1009C000080A00F02F8103F580530F3323F47F6B67
:1009D0002BF00F0B5946204600F0D8FC411C024674
:1009E00000F0EF80824500F2EA80D9F80410594403
:1009F000C9F804100B4600F04B81D7F808140131F8
:100A00001BBFA2EB0A0A5344C7F80824C9F80430F4
:100A100012F0070300F01281C3F108010A44C3F584
:100A2000805193440831A1EB0B01C1F30B0A5146ED
:100A300020460192009300F0A9FC421CDDE900323F
:100A400000F04B81831A03EB0A0BD9F80400BA605B
:100A50004BF001030AEB0001BD425360C9F80410DA
:100A600000F02281B8F10F0F40F220816B68A8F1ED
:100A70000C0020F0070003F0010303436B604FF00C
:100A8000050C2B180F28C3E901CC00F22D81536807
:100A90001546D9F82C208A42D9F8302038BFC9F839
:100AA0002C108A4238BFC9F830108CE0AA1943F0E4
:100AB000010346F001066E602046BA60536000F004
:100AC00021FA0835284603B0BDE8F08FD9681A44EA
:100AD0009DE600BF30040020380400207C0A00207E
:100AE000B2F5206F4FEA522363D3142B00F2B88083
:100AF00003F15C01C9005B3307EB010E7958AEF1DD
:100B0000080E8E4500F091804B6823F0030393425A
:100B100002D989688E45F7D1D1F80CE07A68C5E929
:100B2000021ECEF80850CD60DAE6142B59D9542BAA
:100B300000F29E80330B03F16F0003F16E0CC300D3
:100B40008EE60EF1010E1EF0030F05F108057FF48D
:100B5000D9AE51E0424445465368D8F80C1043F0F2
:100B60000103536055F8083F2046D9608B6000F0C0
:100B7000C9F9F7E6F00806F108023BE62A442046E8
:100B8000536843F001035360083500F0BBF9E9E610
:100B9000A919204646F0010643F001046E60C7E93A
:100BA0000411C1E902CC4C60AB5000F0ABF9083540
:100BB000D8E6930903F13901C90038339CE7BD42F7
:100BC00060D0BD686B6823F0030B5E45ABEB06039A
:100BD00002D80F2B3FF76AAF204600F093F90025AB
:100BE000C0E603F15C0003F15B0CC30038E659F882
:100BF00008394B4540F0968010F0030F00F1FF30AC
:100C0000F5D17B6823EA01037B60490099423FF6F6
:100C1000C4AE19B9C1E649000EF1040E1942FAD06A
:100C200070466BE603F1100BD4E69A104FF0010802
:100C30007B6808FA02F21A437A6070E702EB0B0154
:100C40004942C1F30B0A514620460193009200F03D
:100C50009DFB431CDDE900237FF4F4AE9A46F4E6E5
:100C6000542B26D8130B03F16F01C9006E3343E7F1
:100C7000B3F5AA7F26D8F30B03F1780003F1770CC4
:100C8000C300EDE5D9F804305B44C9F80430B4E69C
:100C9000CAF30B0000287FF4B0AEBD6808EB0B036D
:100CA00043F001036B60F4E61546F2E6012353605E
:100CB00092E7B3F5AA7F21D8D30B03F17801C900DD
:100CC000773319E740F25452934221D8B30C03F121
:100CD0007D0003F17C0CC300C2E5083B9B44ABEBF9
:100CE000020B4FF0000AB0E605F10801204605F0BE
:100CF0003FFABD68D9F804106B68CAE640F2545157
:100D00008B420BD8930C03F17D01C9007C33F3E6D1
:100D10004FF47E737F204FF07E0CA1E54FF47E717F
:100D20007E23E9E67B6870E7844641EA000313F01E
:100D300003036DD1403A41D351F8043B40F8043BE2
:100D400051F8043B40F8043B51F8043B40F8043BA5
:100D500051F8043B40F8043B51F8043B40F8043B95
:100D600051F8043B40F8043B51F8043B40F8043B85
:100D700051F8043B40F8043B51F8043B40F8043B75
:100D800051F8043B40F8043B51F8043B40F8043B65
:100D900051F8043B40F8043B51F8043B40F8043B55
:100DA00051F8043B40F8043B51F8043B40F8043B45
:100DB00051F8043B40F8043B403ABDD2303211D3E5
:100DC00051F8043B40F8043B51F8043B40F8043B25
:100DD00051F8043B40F8043B51F8043B40F8043B15
:100DE000103AEDD20C3205D351F8043B40F8043BE5
:100DF000043AF9D2043208D0D2071CBF11F8013BE3
:100E000000F8013B01D30B8803806046704700BFA8
:100E1000082A13D38B078DD010F003038AD0C3F1B7
:100E20000403D21ADB071CBF11F8013B00F8013B99
:100E300080D331F8023B20F8023B7BE7043AD9D358
:100E4000013A11F8013B00F8013BF9D20B7803702D
:100E50004B7843708B78837060467047830730B55A
:100E600048D0541E002A3FD0CAB2034601E0013CDC
:100E70003AD303F8012B9D07F9D1032C2DD9CDB21C
:100E800045EA05250F2C45EA054536D9A4F110029F
:100E900022F00F0C03F1200EE6444FEA121C03F17E
:100EA000100242E9045542E9025510327245F8D168
:100EB0000CF1010214F00C0F03EB021204F00F0C02
:100EC00013D0ACF1040323F003030433134442F8BA
:100ED000045B9342FBD10CF003042CB1CAB21C4456
:100EE00003F8012B9C42FBD130BD64461346002C15
:100EF000F4D1F9E703461446BFE71A46A446E0E7F3
:100F0000704700BF704700BF0EB400B582B003AB9E
:100F1000816853F8042B019302F0E6FA02B05DF801
:100F200004EB03B0704700BF0FB400B5074983B0AE
:100F300004AB086853F8042B8168019302F0D4FADB
:100F400003B05DF804EB04B0704700BF0000002060
:100F5000024B1B680022C3E92A02704700000020F0
:100F60000B4A0C4910B414680B4AD4E92A0300FB5D
:100F700002F201FB0322A0FB0101431C42EB010032
:100F8000C4E92A3020F000405DF8044B704700BFF0
:100F9000000000202D7F954C2DF4515810B4044CC6
:100FA00003460A4620685DF8044B194600F002B873
:100FB000000000202DE9F84F1746002900F0988026
:100FC00007F10B0580460C46FFF79AFF162D5DD8FA
:100FD00010252A46AF425ED854F8041C21F00306BF
:100FE0009642A4F1080962DABC4BD3F808C009EBB9
:100FF0000600844500F09780D0F804C02CF001036F
:1010000003445B68DB0768D42CF0030C06EB0C038D
:10101000934247DACB0710D454F8083CA9EB030AF3
:10102000DAF8043023F003018C44B444944580F290
:1010300011817318934280F2E88039464046FFF7E9
:10104000C9FB0746E0B154F8043C23F001034B44CC
:10105000A0F10802934200F0D280321F242A00F24D
:10106000F580132A00F2AC8003462246116819600D
:101070005168596092689A602146404605F078F8B8
:101080004046FFF73FFF3846BDE8F88F25F00705DB
:10109000002D2A469EDA0C23C8F800300027384677
:1010A000BDE8F88F1E46D0E90223D3609A60731B17
:1010B0000F2B22D8D9F8043003F0010333434E44F8
:1010C000C9F80430736843F0010373604046274653
:1010D000FFF718FF3846BDE8F88FC907ADD454F8BC
:1010E000083CA9EB030ADAF8041021F00301A0E799
:1010F000BDE8F84F1146FFF76DBBD9F8041001F0B9
:1011000001012943C9F8041009EB05014E4443F0DD
:1011100001034B60736843F001030831736040467C
:1011200005F026F8D2E7DCF8040020F0030B06EB0C
:101130000B0C05F1100084454DDAC9073FF57DAF72
:1011400054F8081CA9EB010ADAF8041021F0030195
:101150008B44B34458453FF76CAF5746DAF80C1050
:1011600057F8080F321F242AC160886000F2DB8024
:10117000132A40F2D6802168CAF808106168CAF8BC
:101180000C101B2A00F2DF8008340AF110022168DB
:10119000116061685160A16891600AEB0501ABEBD9
:1011A000050242F0010299604A60DAF8043003F067
:1011B00001031D434046CAF80450FFF7A3FE6EE743
:1011C00023680360636843601B2A68D804F108023F
:1011D00000F108034AE709EB05029A60ACEB05034E
:1011E00043F00103536054F8043C03F001031D4332
:1011F000404644F8045CFFF785FE27464FE750F869
:10120000043C23F003031E4451E75746DAF80C1060
:1012100057F8080F321F242AC16088604CD8132A5F
:1012200048D92168CAF808106168CAF80C101B2A4E
:1012300056D808340AF110021E462368136063680A
:101240005360A3689360D1463C4630E7214605F0E1
:1012500009FA11E7D0E902135746CB60996057F8B5
:10126000081FDAF80C30CB60321F242A99602DD881
:10127000132A29D92368CAF808306368CAF80C30E1
:101280001B2A42D808340AF1100322681A606268E7
:101290005A60A2689A606646D1463C4607E7A36852
:1012A0008360E368C360242A26D004F1100200F1B1
:1012B0001003DBE63A46BFE7214638461E46D146D4
:1012C00005F0D0F93C46F2E63B46DEE721463846DB
:1012D0006646D14605F0C6F93C46E8E630040020F3
:1012E000A168CAF81010E168CAF81410242A20D0A6
:1012F00010340AF118029FE72369036161694161B3
:1013000004F1180200F11803B0E6A368CAF810301F
:10131000E368CAF81430242A21D010340AF11803E3
:10132000B3E73A4633E72146384605F09BF9164BBA
:1013300033E72269CAF818206269CAF81C201834F9
:101340000AF1200278E7A168CAF81010E168CAF82B
:101350001410242A0DD010340AF1180217E723695B
:10136000CAF818306369CAF81C3018340AF120032F
:101370008BE72269CAF818206269CAF81C20183461
:101380000AF1200203E700BF3004002038B5074D02
:101390000022044608462A6009F04CF8431C00D09D
:1013A00038BD2B68002BFBD0236038BDB00A00206D
:1013B00008B410B5002A9DB0044633DB4FF4027325
:1013C000ADF814300291069120AB17D0013A4FF6D8
:1013D000FF7104920792ADF816101F9A019302A9AB
:1013E00000F022FE421C01DA8B232360029B0022C4
:1013F0001A701DB0BDE8104001B070474FF6FF7184
:1014000004920792ADF816101F9A019302A900F0FA
:101410000BFE431C01DA8B2323601DB0BDE8104096
:1014200001B070478B2303604FF0FF30F5E700BF3A
:101430000CB410B51F4B00291C689CB035DB4FF471
:101440000273ADF81430029006901FAB18D001392A
:101450004FF6FF7204910791ADF8162002A91E9A6B
:101460000193204600F0E0FD421C01DA8B2323604B
:10147000029B00221A701CB0BDE8104002B07047F9
:101480004FF6FF7204910791ADF8162002A91E9A3B
:101490000193204600F0C8FD431C01DA8B23236032
:1014A0001CB0BDE8104002B070478B2323604FF0A2
:1014B000FF30F5E70000002011F0FF01034644D0A3
:1014C000820732D110B5046841EA012E4EEA0E4E71
:1014D0008EEA0402A2F1013323EA0203A4F10132ED
:1014E00022EA0402134313F0803F0FD150F8044F57
:1014F00084EA0E0CA4F10133ACF1013223EA0403B7
:1015000022EA0C02134313F0803FEFD0037823B993
:1015100036E010F8013F002B32D09942F9D110BDCE
:101520008A4211D09A071846CCD0184613F8012BDE
:10153000002AF5D1104670479907184607D018467B
:1015400001330278002AF7D170478207F7D1026889
:10155000A2F1013323EA020313F0803F08D150F8CF
:10156000042FA2F1013323EA020313F0803FF6D0E7
:101570000378002BE8D010F8013F002BFBD1704717
:10158000184610BD00000000000000000000000030
:10159000000000000000000000000000000000004B
:1015A000A2EB0300704700BF02780B78012A28BF26
:1015B0009A42F5D16DE9044540EA0104CDE902679C
:1015C0006FF0000C4FEA447212B380EA010414F089
:1015D000070F6AD100F0070420F0070004F00305AC
:1015E00021F007014FEAC505F0E8042314F0040FC9
:1015F000F1E804670CFA05F462EA040266EA0406FC
:101600000AD063EA0403624667EA0407664603E019
:10161000F0E80423F1E8046782FA4CF582EA060454
:10162000A4FA8CF46CBB83FA4CF583EA0705A5FA9F
:101630008CF595B950E9022351E9026782FA4CF51D
:1016400082EA0604A4FA8CF483FA4CF583EA0705CF
:10165000A5FA8CF52543DBD09CB92DBAB5FA85F4F3
:1016600024F0070427FA04F1DDE9026723FA04F302
:1016700003F0FF0001F0FF01FDE80445A0EB0100CD
:10168000704724BAB4FA84F424F0070426FA04F16B
:10169000DDE9026722FA04F202F0FF0001F0FF0127
:1016A000FDE80445A0EB0100704714F0030F3CD1A6
:1016B00010F0030428D150F8082B51F8083B82FAA7
:1016C0004CF582EA0305A5FA8CF55DB950F8042CB7
:1016D00051F8043C82FA4CF582EA0305A5FA8CF530
:1016E000002DE8D02DBAB5FA85F424F0070423FACA
:1016F00004F122FA04F202F0FF0001F0FF01FDE81C
:101700000445A0EB010070474FEAC40420F0030039
:1017100050F8082B21F0030151F8083B0CFA04F4AF
:1017200062EA040263EA0403C9E710F003041AD072
:10173000A1EB040120F00300E40750F8042B06D0CD
:101740000FD28B785FFAA2F4E41A06D12BB1CB78D2
:101750005FFAB2F4E41A00D11BB920465DF8104BD1
:10176000704701F1040150F8042BCC0721F003016C
:1017700051F8043B48D824D222F07F4482FA4CF539
:1017800094EA1325A5FA8CF50AD165B951F8043B02
:1017900084EA0204B4EB036F0ED150F8042BEBE79C
:1017A0004FEA132355E035F07F454DD10878FDE829
:1017B0000445C0F1000070474FEA126203F0FF03D6
:1017C00047E002EA1C4482FA4CF594EA1345A5FA74
:1017D0008CF50AD165B951F8043B84EA0204B4EBF4
:1017E000034F0CD150F8042BEBE74FEA134330E0E2
:1017F00015EA1C4528D10B884FEA124229E04FEA2E
:10180000124203EA1C4324E002F0FF0482FA4CF582
:1018100094EA1365A5FA8CF50AD165B951F8043B31
:1018200084EA0204B4EB032F09D150F8042BEBE750
:101830004FEA13630DE015F0FF0F05D10B684FEA77
:10184000122223F07F4304E04FF00000FDE804453E
:10185000704712BA1BBA82FA4CF482EA0304A4FA63
:101860008CF5B5FA85F402FA04F203FA04F34FEAB0
:101870001260FDE80445A0EB1360704780EA0102A6
:10188000844612F0030F4FD111F0030F32D14DF8FF
:10189000044D11F0040F51F8043B0BD0A3F10132B9
:1018A0009A4312F0803F04BF4CF8043B51F8043BCC
:1018B00016D100BF51F8044BA3F101329A4312F044
:1018C000803FA4F101320BD14CF8043BA24312F04B
:1018D000803F04BF51F8043B4CF8044BEAD0234648
:1018E0000CF8013B13F0FF0F4FEA3323F8D15DF8FA
:1018F000044B704711F0010F06D011F8012B0CF8C2
:10190000012B002A08BF704711F0020FBFD031F839
:10191000022B12F0FF0F16BF2CF8022B8CF80020C0
:1019200012F47F4FB3D1704711F8012B0CF8012B43
:10193000002AF9D1704700BF00000000000000003D
:1019400090F800F06DE9024520F007016FF0000CFF
:1019500010F0070491F820F040F049804FF00004A7
:101960006FF00700D1E9002391F840F000F1080082
:1019700082FA4CF2A4FA8CF283FA4CF3A2FA8CF3BA
:101980004BBBD1E9022382FA4CF200F10800A4FA21
:101990008CF283FA4CF3A2FA8CF3E3B9D1E9042375
:1019A00082FA4CF200F10800A4FA8CF283FA4CF3AC
:1019B000A2FA8CF37BB9D1E9062301F1200182FA66
:1019C0004CF200F10800A4FA8CF283FA4CF3A2FA6C
:1019D0008CF3002BC6D0002A04BF04301A4612BA7A
:1019E000B2FA82F2FDE8024500EBD2007047D1E97D
:1019F000002304F00305C4F100004FEAC50514F00C
:101A0000040F91F840F00CFA05F562EA05021CBFDC
:101A100063EA050362464FF00004A9E7A2B330B5BC
:101A200040EA0104A40784460B462AD09CF8000033
:101A30000C7884422FD1012A0DD0E64660B11EF801
:101A4000010F11F8014F6FEA0E03A042134422D197
:101A50001CEB0303F2D1002030BD0468194653F893
:101A6000045BA4F1013EAC4284462EEA040E00F170
:101A700004000BD1043A84461946ECD01EF0803F96
:101A8000E9D1032AE9D8D1E7104670479CF8000055
:101A90000C78A042D1D0001B30BD00BF2DE9F04F23
:101AA000012BADF21C4D1D4681460F46904640F27B
:101AB00045810123002419464FF0FF309C4606E083
:101AC000A3EB000C1C46012163189D4210D908EBC2
:101AD000000218F80360525C9642F1D300F0828055
:101AE0004FF0010C20466146644463189D42EED8D5
:101AF000CDF808C04FF0010C002461464FF0FF36CE
:101B0000634606E0A3EB060C1C46012163189D42C8
:101B10000FD908EB010218F803E0925D9645F1D861
:101B200066D04FF0010C26466146644463189D421E
:101B3000EFD8013600F1010BB34502D8CDF808C04B
:101B4000B34605AB0DF2144243F8045F9342FBD158
:101B5000002D00F0F8806C1E06AE08F1FF3208EB95
:101B60000400019612F8011FD3432B4443449042D2
:101B700046F82130F6D1029B5A4608EB0301404655
:101B800004F03EFD002840F08280029B0BF1FF3202
:101B9000EB1A824606460592039309EB060E019A5C
:101BA0001EF8043052F8233043B3BAF1000F04D0CA
:101BB000029A9342039A38BF13461E444FF0000A1C
:101BC0007B1BB342E9D209EB070045F4006105F045
:101BD0005DFB07447B1BB342DFD200200DF21C4D9E
:101BE000BDE8F08F8C4512BF0131644401216BE7E1
:101BF00061450ABF64180131012187E7D3455B467F
:101C000038BF5346A34211D2591E9A1941444A443F
:101C100002E00133A34209D212F8010B11F801CFFF
:101C20008445F6D0CBF101021644C6E7D345059BA7
:101C300040F282800BEB06024A4408EB0B01CDF820
:101C400010B002E0534516D0034612F8010D11F80A
:101C500001CD844503F1010B03F1FF30F2D05B4667
:101C6000DDF810B00AF1010A9A450BD8029BDDF8A5
:101C70000CA01E44A4E753460AF1010A9A45DDF878
:101C800010B0F3D970460DF21C4DBDE8F08FA5EBF6
:101C90000B035B4538BF5B46013304930BF1FF3305
:101CA0000293CBF101030026039345F4006A09EB8C
:101CB0000601019A0B5D52F823306BB11E447B1B69
:101CC0009E42F4D909EB0700514605F0DFFA0744BC
:101CD0007B1B9E42EBD980E7A34514D2029B0BEB02
:101CE000060208EB030C4A445B4602E00133A342C0
:101CF00009D212F8010B1CF801EF8645F6D0039AC1
:101D000016441E44DBE7BBF1000F10D00BEB0600BE
:101D1000484408EB0B0201E0434508D012F801EDFE
:101D200010F801CDE6451346F6D0049BC6E70846F9
:101D30000DF21C4DBDE8F08F5B4693E70123029343
:101D40004FF0000BFDE606AB4FF0FF34019312E7B6
:101D50002DE9F0410D46097890B00446002953D092
:101D60006A78002A00F08380AB78002B50D0E878A6
:101D7000002800F083802B79002B57D02846FFF7EE
:101D8000DFFD064640F40071204605F07FFA8642EA
:101D90005CD8FE2E00F28780801B27184022711C21
:101DA0006846FFF75BF87EB16A1E5FFA86FC901901
:101DB00012F8013F03F03F0340336B44A91A61441A
:101DC000824203F8401CF3D1013CA35D03F03F03C2
:101DD00040336B4413F8400C0444A74203D23AE06A
:101DE0004444A74237D314F806C00CF03F0C0CF162
:101DF00040030DEB030C2046324629461CF8408C6C
:101E000004F0FEFB0028EBD1204610B0BDE8F081C5
:101E1000007842EA014200E00C4640EA0343611CBC
:101E2000A0B19A426078F7D1013CEDE722786AB11F
:101E3000296809BA01E099421ED042EA03232046EC
:101E400014F8012F002AF6D1994215D0002420461B
:101E500010B0BDE8F081BB5DB819002BF6D04FF48F
:101E6000006105F013FA0744BC42ADD9EEE710B0AB
:101E7000BDE8F041FFF720BBC41EC5E7120442EAEB
:101E8000016242EA03232178024600E02C4641EA3F
:101E90000200651C02020029D8D0B3EB002F617844
:101EA000F4D1023CB0E7014633462A46204610B042
:101EB000BDE8F041F2E500BF2DE9F04707464B4889
:101EC0000E46354616F801CB10F80C4014F0080405
:101ED000F7D1BCF12D0FE64658D0BCF12B0F04BF53
:101EE00096F800E0AE1C5BB1102B54D04FF0FF38D9
:101EF000B8FBF3F803FB08FA6FEA0A0A994608E010
:101F0000BEF1300F5AD00A23DFF8E4804FF0050A03
:101F100099460025284607E0404515D829D009FBF9
:101F200000C0012516F801EBAEF1300CBCF1090F31
:101F300006D9AEF1410CBCF1190F08D8AEF1370C3F
:101F400063450DDD002DE7DA4FF0FF35EAE7AEF12E
:101F5000610CBCF1190F03D8AEF1570C6345F1DCED
:101F6000002D0BDB04B140420AB16DB91160BDE830
:101F7000F087D445D3DD4FF0FF35D3E722233B6014
:101F80004FF0FF30002AF2D0711EEFE796F800E024
:101F90000124AE1CA7E7BEF1300F21D1307800F04C
:101FA000DF00582816D14FF0100996F801E04FF0E5
:101FB0000F0A02366FF070484B46AAE7337803F0F9
:101FC000DF03582BEFD008234FF0070A6FF060486B
:101FD00099469EE799466FF070484FF00F0A98E7D0
:101FE0004FF00F0A6FF07048994692E7656F01084D
:101FF0009999991960E700BF10B4044C84461346C0
:1020000020685DF8044B0A46614655E70000002051
:1020100010B4044C8446134620685DF8044B0A460D
:10202000614649E7000000202DE9F04F2DED068BB9
:10203000BBB088469146099309EE100A04F0E4F912
:10204000036810931846FFF77BFCB8F80C300F902C
:10205000180604D5D8F81030002B00F0E7869FED65
:10206000867B0023CDE91E338DED0C7B2AAA0B93D2
:102070001D9292460E931193069399F80030002B0F
:1020800000F087814C4604E014F8013F002B00F07B
:10209000C580252BF8D1B4EB090540F0C380237827
:1020A000002B00F0768100234FF0FF3265788DF829
:1020B000573004F101091846059207939B4609F130
:1020C0000109A5F12002582A00F2DA80DFE812F0B7
:1020D0005E02D800D8005902D800D800D800D80035
:1020E000D800D8000C025402D80017021C02D800F5
:1020F0004F02590059005900590059005900590020
:1021000059005900D800D800D800D800D800D8000D
:10211000D800D800D800D80036026C01D8006C0175
:10212000D800D800D800D8006602D800D8007800BF
:10213000D800D800D800D800D8006800D800D8004F
:102140007902D800D800D800D800D800D800D8002C
:10215000D800D800D8006B02CF016C016C016C0173
:102160009A02CF01D800D8000E03D800F8027A00F6
:10217000DD02D802D800B602D8006A00D800D80024
:102180009F02A5F13002002119F8015B01EB8101EA
:1021900002EB4101A5F13002092AF5D9079190E738
:1021A0004BF0100B1BF0200100F05381099B07330B
:1021B00023F00703596853F8080B099301230EE035
:1021C0004BF0100B1BF0200100F03681099B073308
:1021D00023F00703596853F8080B099300230024E0
:1021E0008DF85740059A561C00F08F822BF0800620
:1021F000039650EA010640F08682002A40F00E83E2
:10220000002B40F03C851BF00103089300F0AF85E4
:1022100030238DF8A7300DF1A7069BE2B4EB09053A
:1022200000F0B7801F9B2B441F931E9B0133072B8D
:10223000CAE900951E9305DC0AF1080A069B2B44A7
:1022400006932CE719EE100A1DAA414605F030F856
:1022500018B90DF1A80AF1E7B046B8F80C3013F040
:10226000400F069B18BF4FF0FF33069306983BB014
:10227000BDEC068BBDE8F08F000000000000000000
:10228000002B40F0E987002D00F0838000238DF8BB
:10229000573001238DF880500493089320AE00231B
:1022A000CDF80CB005930A93039B13F0020302D000
:1022B000049A02320492039A12F0840B05D1079A11
:1022C0000499571A002F00F3A0831F9C9DF85720F4
:1022D0008AB11E9A0DF1570101320134CAF800107B
:1022E000072A4FF001011F941E92CAF8041000F350
:1022F000D9830AF1080A83B11E9B16AA013302345E
:10230000CAF80020072B4FF002021F941E93CAF850
:10231000042000F3D6830AF1080ABBF1800F00F015
:102320009982059B089AA3EB020BBBF1000F00F307
:10233000D482039BDF0500F11682089BCAF80430A3
:102340001C441E9BCAF800600133072B1F941E9388
:1023500000F34E830AF1080A039B5B0705D5079B30
:10236000049A9D1A002D00F3B983DDE90632049921
:102370008A42ACBF9B185B180693002C40F0E882A1
:1023800000231E9399F800300DF1A80A002B7FF46A
:1023900079AE1F9B002B3FF460AF19EE100A1DAA07
:1023A000414604F085FF58E7002B41F00680099B69
:1023B000073323F00703B3EC027B8DED0C7BDDE9E3
:1023C0000C67099327F0004308EE903A08EE106A74
:1023D000B64B51EC180B4FF0FF3207F0C7FD002849
:1023E00040F0C784B14B51EC180B4FF0FF3207F0AF
:1023F0009FFD002840F0BD8400220023304639466E
:1024000007F08CFD002840F0FC869DF85740A84E50
:102410002BF080030393A74B0022472DC8BF1E4615
:102420000323CDE9043208930A92002C3FF43CAF19
:10243000049B0133049337E71BF0100348D11BF0D2
:10244000400145D0099A52F8040B0992194680B20E
:10245000C5E61BF0100341D11BF040013ED0099AA4
:1024600052F8040B0992194680B20123B7E6002BFB
:1024700040F0A7871BF0200F099B68D0073323F09B
:1024800007031A465B6852F8080B09921946002B9D
:10249000C0F23D84059B013300F085852BF080035D
:1024A000039350EA01039DF8574000F0E483DDF800
:1024B0000CB00A2871F1000380F010853030012340
:1024C0008DF8A700CDF80CB008930DF1A70641E1F7
:1024D000099B53F8040B09930B4680E6099B53F8BC
:1024E000040B099301237AE6099A52F8041B079119
:1024F000002980F23784079909924942079199F897
:1025000000504BF0040BDAE5494611F8015B2A2D27
:1025100000F0C787A5F13002092A894698BF00213B
:1025200000F23B8719F8015B01EB810102EB4101ED
:10253000A5F13002092AF5D90591C2E5002B40F03A
:1025400044874BF0100B1BF0200F099B96D153F8DA
:10255000040B09931BF0100F40F0D4831BF0400FC5
:1025600000F0D08340F3C0310B4600B28FE799F8FA
:1025700000504BF0800BA2E599F8005001232B206E
:102580009DE599F800504BF0010B98E599F8005043
:1025900000287FF494AD0123202090E599F80050A5
:1025A0004BF0080B8BE5099B00228DF8572053F860
:1025B000042B099301238DF880200493089320AE07
:1025C0006DE6002B40F0F1863B4B0E931BF0200193
:1025D00025D0099B073323F00703596853F8080BEC
:1025E00009931BF0010F0BD050EA010308D03023F0
:1025F0008DF858308DF859504BF0020B0223EEE560
:102600000223ECE599F800504BF0400B57E5002B06
:1026100040F0C786294B0E931BF02001D9D11BF047
:10262000100340F06A831BF0400100F06683099AB2
:1026300052F8040B0992194680B2D2E7099C059B17
:1026400054F8046B00278DF85770002E00F0E584D5
:102650005A1C00F0FC831A463946304603F080FFCE
:10266000002800F08286831B089323EAE373099411
:1026700005979DF85740CDF80CB004930A97D4E61F
:1026800099F800504BF0200B19E5099B53F8040B07
:102690000993302378258DF85830084B0E934BF072
:1026A000020B8DF859500021022398E5FFFFEF7FC0
:1026B000147C0108187C0108387C0108247C01087E
:1026C000002B40F076861BF0200F40F099831BF022
:1026D000100F40F0F5831BF0400F00F0F183099BD1
:1026E000069953F8042B09931180C6E499F8005019
:1026F0006C2D03BF99F801504BF0200B09F1010933
:102700004BF0100BDBE4DDF80CB0012B3FF4D1AE45
:10271000022B00F08B802AAE00F00703C00840EACD
:102720004170C908303350EA0107324606F8013DCE
:10273000F2D11BF0010F00F08780302B00F0848075
:102740003023023A06F8013C2AAB9B1ACDF80CB0B4
:1027500008931646059B089A9342B8BF1346049304
:1027600000230A9361E6652D40F3FC80DDE90C014E
:102770000022002307F0C8FB002800F0EA811E9B1E
:10278000AA4ACAF80020013301340122072B1F9402
:102790001E93CAF8042000F316840AF1080A179B56
:1027A0000B9A934203DB039BD8077FF5D5AD0F9BB4
:1027B000109A1C44CAE900231E9B1F940133072B67
:1027C0001E9300F31C840AF1080A0B9B5D1E002D6A
:1027D0007FF7C2AD102D1E9B954F40F3E88319EE95
:1027E00010BA102605E00AF1080A103D102D40F33A
:1027F000DE8301331034072BCAE90076CDE91E349D
:10280000F1DD1DAA4146584604F052FD00287FF430
:1028100024ADDDE91E340DF1A80AE6E7012B00F036
:102820006F85022BDDF80CB07FF475AF0E9A2AAEDF
:1028300000F00F030009D35C06F8013D40EA017087
:10284000090950EA0103F3D12AAB9B1BCDF80CB068
:1028500008937FE7079B049AA3EB020BBBF1000FE1
:102860007FF75FADBBF1100F1E9A714F27DD214638
:10287000102319EE104A06E0ABF1100BBBF1100F5C
:102880000AF1080A1ADD01321031072ACAE9007379
:10289000CDE91E21F0DD1DAA414620460DF1A80A12
:1028A00004F006FD00287FF4D8ACABF1100BBBF1AF
:1028B000100FDDE91E214FF01003E4DC0C4601325D
:1028C0005C44072ACDE91E24CAF80070CAF804B097
:1028D00000F387830AF1080A23E5BBF1100F1E9A63
:1028E000534F27DD2146102319EE104A06E0ABF1C5
:1028F000100BBBF1100F0AF1080A1ADD013210317A
:10290000072ACAE90073CDE91E21F0DD1DAA414660
:10291000204604F0CDFC00287FF49FACABF1100BF7
:10292000BBF1100FDDE91E210DF1A80A4FF01003D5
:10293000E4DC0C4601325C44072ACDE91E24CAF8C7
:102940000070CAF804B000F3CA810AF1080AF0E482
:1029500019EE100A1DAA414604F0AAFC00283FF413
:102960000FAD7AE40B9B012B40F366811E9DCAF8E4
:102970000060013501340123072D1F941E95CAF80C
:10298000043000F3CE810AF1080A0F9B109A01353A
:102990001C44072DCAE90023CDE91E5400F3D4815D
:1029A0000AF1080ADDE90C010022002307F0ACFA65
:1029B000002840F069810B9B0135013B01361C4426
:1029C000072DCAF800601E95CAF804301F9400F362
:1029D00044810AF1080A119BCAF8043001351C44ED
:1029E000072D19ABCDE91E54CAF800307FF7B2AC01
:1029F00019EE100A1DAA414604F05AFC00287FF483
:102A00002CAC1F9C0DF1A80AA6E4102FDDE91E21B5
:102A100039DD1293CDF84C901024B1460B46464652
:102A2000B8462F4619EE105A0BE000BF547C01083F
:102A30007C700108A8F11008B8F1100F0AF1080A1B
:102A400019DD0132BE491033072ACAE90014CDE965
:102A50001E23EFDD1DAA314628460DF1A80A04F019
:102A600027FC00287FF4F8ABA8F11008B8F1100F8C
:102A7000DDE91E23E5DC3D4619464746129BB0467C
:102A80004E46DDF84C90CAF8047001327C18072AD3
:102A9000AB49CAF80010CDE91E2400F374820AF194
:102AA000080A13E419EE100A1DAA4146129304F015
:102AB000FFFB00287FF4D1AB1F9C129B0DF1A80AED
:102AC00019E419EE100A1DAA414604F0F1FB002892
:102AD0007FF4C3AB1F9C0DF1A80A1EE4102D1E9BB2
:102AE00020DD19EE107A102604E0103D102D0AF1B9
:102AF000080A17DD0133924A1034072BCAE9002671
:102B0000CDE91E34F1DD1DAA414638460DF1A80A73
:102B100004F0CEFB00287FF4A0AB103D102DDDE9C2
:102B20001E34E7DC0133864ACAF804502C44072BD4
:102B3000CDE91E34CAF800207FF717AC19EE100A51
:102B40001DAA414604F0B4FB00287FF486AB1F9C0D
:102B50000BE41799002940F3E181DDE90A379F4230
:102B6000A8BF1F46002F0BDD1E9B01333C44072BE3
:102B7000CAE900671F941E9300F3D7830AF1080A7D
:102B80000A9D002FA8BFED1B002D00F37081179D3B
:102B90000B9B9D4280F23E810F9B109A1C44CAE918
:102BA00000231E9B1F940133072B1E9300F34483C5
:102BB0000AF1080A0B9B0A9A5D1B9F1AAF42A8BF35
:102BC0002F46002F0EDD1E9BCAF8047001331644F9
:102BD0003C44072BCAF800601F941E9300F3B58392
:102BE0000AF1080A002FA8BFED1B002D7FF7B4AB38
:102BF000102D1E9B534F40F3DA8119EE10BA1026A8
:102C000005E00AF1080A103D102D40F3D081013390
:102C10001034072BCAE90076CDE91E34F1DD1DAA78
:102C20004146584604F044FB00287FF416ABDDE92A
:102C30001E340DF1A80AE6E7039BDA073FF596AECE
:102C40001E9DCAF80060013501340123072D1F9431
:102C50001E95CAF804307FF7BCAE19EE100A1DAA03
:102C6000414604F025FB00287FF4F7AADDE91E5455
:102C70000DF1A80AAFE6059B002B40F0418300232D
:102C8000059308932AAE65E50B9B5E1E002E7FF729
:102C9000A2AE102E2B4F40F3CB81CDF814904FF005
:102CA000100B19EE109A05E00AF1080A103E102EDA
:102CB00040F3BC8101351034072DCAE9007BCDE912
:102CC0001E54F1DD1DAA4146484604F0F1FA0028E1
:102CD0007FF4C3AADDE91E540DF1A80AE6E719EE58
:102CE000100A1DAA414604F0E3FA00287FF4B5AAB1
:102CF0001F9C0DF1A80AFFF71CBB099B53F8040B9E
:102D000009936EE4C1170B46002BBFF6C3AB4042DC
:102D10004FF02D0461EB41018DF857400123FFF77F
:102D200061BA19EE100A1DAA414604F0C1FA002842
:102D30007FF493AADDE91E540DF1A80A25E600BF31
:102D40006C7001087C70010819EE100A1DAA41463A
:102D500004F0AEFA00287FF480AADDE91E540DF1DC
:102D6000A80A1FE699F800500992FFF7A8B92AAE01
:102D7000F0E4DDE90C0102460B4607F0F7F8002805
:102D800040F05183059B013325F02003049300F0AC
:102D9000D982472B00F09C80DDE90C014BF4807256
:102DA00000290392C0F232829DED0C7B0027B0EE29
:102DB00047AAF0EE67AA662D00F07A81462D00F052
:102DC0007781B0EE4A0AF0EE6A0A049B452B0ABFEF
:102DD000059B059C5C1C1BAB019318AB009319EE83
:102DE000100A17AB2246022101F0EEFF672D0646BE
:102DF00040F092821BF0010F00F0AC8134446FE18F
:102E0000099B069853F8041B0993C217C1E90002F5
:102E1000FFF733B9039BD9073FF5BEAEDDE90A23BF
:102E20009F1A5D1BAF42A8BF2F46DBE619EE100AC2
:102E30004021FDF7CFFCC8F80000C8F810000028BA
:102E400000F03E834023C8F81430FFF708B930463D
:102E500009940597CDF80CB0FEF772FD20EAE073F7
:102E60009DF85740089004930A97FFF7DEBA102D9B
:102E70001E9BB54F40F3B8813A460596474619EE7A
:102E8000106A4FF0100B904605E00AF1080A103D59
:102E9000102D40F3A58101331034072BCAE9008BB4
:102EA000CDE91E34F1DD1DAA3946304604F000FAA2
:102EB000002840F0A782DDE91E340DF1A80AE6E7FC
:102EC000099B069953F8042B11600993FFF7D5B8B5
:102ED000059B002B08BF012305935DE7CDF80C90FF
:102EE0002AAEA1460A22002304460F46FDF7FCF94C
:102EF000303206F8012D0023204639460A22FDF71C
:102F0000F3F90A2C77F10003ECD22AAB9B1B4C4659
:102F10000893DDF80C90CDF80CB01BE41E9B8B4A97
:102F2000CAF80020013301340122072B1F941E939D
:102F3000CAF8042000F372810AF1080A002940F05F
:102F40008380039B0B9A03F0010313433FF404AA0D
:102F50000F9B10991A19CAE900131E9B1F92013387
:102F6000072B1E9300F37C810AF1080A0B99CAF81B
:102F7000006001338C18072BCDE91E34CAF8041009
:102F80007FF7E8A934E519EE100A1DAA414612930D
:102F900004F08EF900287FF460A91F9C129B0DF1AC
:102FA000A80AFFF793B99DF85740FFF782BA01339B
:102FB0002C44072BCAF80070CAF80450CDE91E341F
:102FC0007FF7C8A914E519EE100A1DAA414604F0BE
:102FD0006FF900287FF441A91F9C0DF1A80AFFF7A3
:102FE000DEBB19EE100A1DAA414604F061F9002863
:102FF0007FF433A91F9C0DF1A80AFFF792B919EECF
:10300000100A1DAA414604F053F900287FF425A9AF
:103010001F9C0DF1A80AFFF7D8BB062B28BF06237B
:10302000CDE908344A4E0493FFF739B9DDF814901E
:10303000CAF8007001353444072DCDE91E54CAF892
:1030400004607FF7C6AC08E60F9B10981A19CAE90E
:1030500000031E9B1F920133072B1E9300F3008178
:103060000AF1080A002981DA4D421031364F80F208
:10307000B08119EE10BA102405E00AF1080A103DDB
:10308000102D40F3A68101331032072BCAE90074DA
:10309000CDE91E32F1DD1DAA4146584604F008F97B
:1030A00000287FF4DAA8DDE91E320DF1A80AE6E770
:1030B000059CB0EE4A0AF0EE6A0A1BAB019318AB0E
:1030C0000093224617AB19EE100A032101F07CFE93
:1030D000064604193378302B00F09781179B1C4467
:1030E00051EC1A0B0022002306F00EFF002840F0DE
:1030F000B1801B9BA34206D230215A1C1B9219702F
:103100001B9B9C42F9D89B1B0B93049B472B28D0FD
:10311000662D40F0DE81179B059A0A93002B0BF079
:10312000010B40F3F1805BEA020140F09F810A9BB2
:1031300004930893002F00F0F3802D238DF857306F
:1031400000230593FFF774B97C700108547C0108D3
:103150004C7C01081B9B9B1B0B93049B472B40F053
:10316000B881179B0A93D91C11DB059A93420EDC98
:10317000DDE90A329342C0F204811BF0010F40F0F6
:10318000638123EAE372049208936725D2E7023D44
:103190000A9A8DF86450531E002B1793B6BFC2F1E4
:1031A00001032B222D22092B8DF8652074DC30338E
:1031B0008DF8673030238DF86630042311930B9A15
:1031C000119B012A1344089340F34781089B0F9AEF
:1031D0001344089323EAE373049300230A93A9E7B3
:1031E0004246059EB846174601332C44072BCDE9CD
:1031F0001E34CAF80070CAF8045040DC0AF1080A0C
:10320000C5E42D248DF85740FFF701B901F10043C3
:103210000AEE100A0AEE903A2D27CCE519EE100AB4
:103220001DAA414604F044F800287FF416A8179917
:103230001F9C0DF1A80A81E619EE100A1DAA41464D
:1032400004F036F800287FF408A8179D1F9C0DF1A4
:10325000A80AAFE4234656E78DF85700FFF713B8E6
:1032600019EE100A1DAA414604F022F800287EF447
:10327000F4AFDDE91E3217990DF1A80AF2E619EE56
:10328000100A1DAA414604F013F800287EF4E5AFA9
:103290001F9C0DF1A80A7AE40DF17304DFF840C217
:1032A000224610468CFB0321DA17C2EBA10202EB87
:1032B0008201A3EB4101303100F8011C194663295A
:1032C000134600F1FF32ECDC3033D9B2831E9C424E
:1032D00002F8011C40F2F18013460DF1660201E094
:1032E00013F8011B02F8011B9C42F9D10DF1750383
:1032F0000DF166021B1A134419AA9B1A11935EE77B
:10330000DDF80CB0FFF7DAB85BEA020340F0B680F4
:103310000123049308930DE7472D3FF46BAD6DE552
:103320009DF857400597FFF780B819EE100A1DAABF
:10333000414603F0BDFF00287EF48FAF1F9C0DF1C6
:10334000A80A1DE40623059326E519EE100A1DAA16
:10335000414603F0ADFF00287EF47FAF179D0B9B25
:103360001F9C5D1B0DF1A80A3CE4059B0994CDF858
:103370000CB09DF857400493089305900A90FFF70E
:1033800054B80F9A0B9B13440A9A0893002A7DDDC8
:1033900023EAE37304936725CCE600220592FEF747
:1033A00090BE8DF85700FFF735B98DF85700FFF73D
:1033B0000BB98DF85700FFF786B98DF85700FEF767
:1033C000F6BF8DF85700FFF755B88DF85700FFF797
:1033D000B8B801332A44072BCDE91E32CAF8007071
:1033E000CAF804507FF7C0AD19EE100A1DAA414675
:1033F00003F05EFF00287EF430AFDDE91E320DF1F0
:10340000A80AB3E5B846FEF728BF51EC1A0B002214
:10341000002306F079FD00287FF460AE059BC3F120
:10342000010317935BE60D9B2B4E002BB8BF2D2499
:103430002BF080030393A8BF9DF85740274BB8BFDC
:103440008DF85740FEF7E8BF0A9B0F9A1344089384
:1034500023EAE373049367256CE61BF001020A92EA
:103460007FF4B4AE23EAE373049363E60F990B444D
:103470001A4422EAE273089204935BE60F9B01333D
:103480001A4422EAE2730892049353E60A9B089ACC
:10349000C3F101031A4422EAE273089204936725F8
:1034A00048E6099A99F80150894652F8041B099296
:1034B00041EAE1710591FEF702BE022311937EE617
:1034C00019EE102A0C2313604FF0FF330693FEF71A
:1034D000CDBE179B0A935BE61C7C0108207C01088B
:1034E00067666666000000002DE9F04F2DED068B43
:1034F000BBB01C468846914609EE100A054602F00C
:1035000083FF0368109318460994FEF719FA0E908A
:103510001DB1AB6B002B00F04282B8F90C20950472
:1035200093B20AD442F40053D8F86420A8F80C30BF
:1035300022F400529BB2C8F86420180740F1AB8017
:10354000D8F81020002A00F0A68003F01A030A2BF6
:1035500000F0B0809FED947B0023CDE91E338DED0C
:103560000C7B2AAA0B931D9292460F9311930793FB
:1035700099F80030002B00F0A4814C4604E014F8C8
:10358000013F002B00F0E580252BF8D1B4EB0905B5
:1035900040F0E3802378002B00F0938100234FF06C
:1035A000FF32CDE9052365788DF8573004F1010924
:1035B00018469B4609F10109A5F12002582A00F29C
:1035C000F780DFE812F07F02F500F5007A02F500DF
:1035D000F500F500F500F500F5002D027502F50087
:1035E00038023D02F5007002590059005900590097
:1035F00059005900590059005900F500F500F5002F
:10360000F500F500F500F500F500F500F5005702AE
:103610008901F5008901F500F500F500F500B60215
:10362000F500F5009800F500F500F500F500F5004F
:103630008800F500F5009502F500F500F500F500AD
:10364000F500F500F500F500F500F5008702F00142
:10365000890189018901BB02F001F500F500EC0246
:10366000F500D6029A00C502C002F5001B03F50062
:103670008A00F500F500F902A5F13002002119F8E1
:10368000015B01EB810102EB4101A5F13002092A46
:10369000F5D9069190E719EE100A414601F062FA59
:1036A000002841F02681B8F80C3003F01A030A2BE9
:1036B0007FF450AFB8F90E30002BFFF64BAF19EE88
:1036C000100A23464A4641463BB0BDEC068BBDE896
:1036D000F04F01F0A1B94BF0100B1BF0200100F0EE
:1036E0005081099B073323F00703596853F8080BEF
:1036F000099301230EE04BF0100B1BF0200100F0AA
:103700003381099B073323F00703596853F8080BEB
:103710000993002300248DF85740059A561C00F0A9
:1037200091822BF08006039650EA010640F08882D1
:10373000002A40F00D83002B40F01E851BF0010392
:10374000089300F0948530238DF8A7300DF1A7067B
:103750009DE2B4EB090500F0B4801F9B2B441F933E
:103760001E9B0133072BCAE900951E9305DC0AF165
:10377000080A079B2B4407930CE719EE100A1DAAB1
:10378000414604F07BFB18B90DF1A80AF1E7B046F9
:10379000B8F80C305B0601F1AC8007983BB0BDEC8B
:1037A000068BBDE8F08F00BF0000000000000000A5
:1037B000002B40F0E587002D00F0838000238DF87A
:1037C000573001238DF880500493089320AE0023D6
:1037D000CDF80CB005930A93039B13F0020302D0BB
:1037E000049A02320492039A12F0840B05D1069ACD
:1037F0000499571A002F00F3A2831F9C9DF85720AD
:103800008AB11E9A0DF1570101320134CAF8001035
:10381000072A4FF001011F941E92CAF8041000F30A
:10382000DD830AF1080A83B11E9B16AA0133023414
:10383000CAF80020072B4FF002021F941E93CAF80B
:10384000042000F3DA830AF1080ABBF1800F00F0CC
:103850009B82059B089AA3EB020BBBF1000F00F3C0
:10386000D682039BDF0500F11B82089BCAF8043057
:103870001C441E9BCAF800600133072B1F941E9343
:1038800000F350830AF1080A039B5A0705D5069BEB
:10389000049A9D1A002D00F3BD83DDE906230499E7
:1038A0008A42ACBF9B185B180793002C40F0EA8259
:1038B00000231E9399F800300DF1A80A002B7FF425
:1038C0005CAE1F9B002B3FF463AF19EE100A1DAADC
:1038D000414604F0D3FA5BE7002B40F0F687099BE2
:1038E000073323F00703B3EC027B8DED0C7BDDE99E
:1038F0000C67099327F0004308EE903A08EE106A2F
:10390000B94B51EC180B4FF0FF3206F02FFB00289B
:1039100040F0B484B44B51EC180B4FF0FF3206F07A
:1039200007FB002840F0AA840022002330463946D5
:1039300006F0F4FA002840F002879DF85740AB4E9D
:103940002BF080030393AA4B0022472DC8BF1E46CD
:103950000323CDE9043208930A92002C3FF43CAFD4
:10396000049B0133049337E71BF0100352D11BF083
:1039700040014FD0099A52F8040B0992194680B2BF
:10398000C8E61BF010033FD11BF040013CD0099A60
:1039900052F8040B0992194680B20123BAE6284670
:1039A00002F076FBB9E5002B40F09F871BF0200F5B
:1039B000099B68D0073323F007031A465B6852F867
:1039C000080B09921946002BC0F23D84059B013378
:1039D00000F005852BF08003039350EA01039DF866
:1039E000574000F0C583DDF80CB00A2871F10003E0
:1039F00080F0FC84303001238DF8A700CDF80CB0A6
:103A000008930DF1A70642E1099B53F8040B0993B3
:103A100001237FE6099B53F8040B09930B4679E6D3
:103A2000099A52F8041B0691002980F21B8406991A
:103A300009924942069199F800504BF0040BB9E500
:103A4000494611F8015B2A2D00F0C587A5F1300227
:103A5000092A894698BF002100F2338719F8015BD3
:103A600001EB810102EB4101A5F13002092AF5D9F0
:103A70000591A1E5002B40F030874BF0100B1BF0B7
:103A8000200F099B96D153F8040B09931BF0100FDC
:103A900040F0D4831BF0400F00F0D08340F3C031DE
:103AA0000B4600B28FE799F800504BF0800B81E590
:103AB00099F8005001232B207CE599F800504BF039
:103AC000010B77E599F8005000287FF473AD0123CE
:103AD00020206FE5099B00228DF8572053F8042B16
:103AE000099301238DF880200493089320AE6EE69D
:103AF000002B40F0E2863F4B0F931BF0200163D078
:103B0000099B073323F00703596853F8080B0993FF
:103B10001BF0010F0BD050EA010308D030238DF8C1
:103B200058308DF859504BF0020B0223F2E5022376
:103B3000F0E599F800504BF0080B3BE599F8005080
:103B40004BF0400B36E599F800504BF0200B31E577
:103B5000099B53F8040B0993302378258DF85830CE
:103B6000254B0F934BF0020B8DF859500021022387
:103B7000D0E5002B40F0AD861BF0200F40F02584EF
:103B80001BF0100F40F09D841BF0400F00F0998453
:103B9000099B079953F8042B09931180E8E499F8DD
:103BA00000506C2D03BF99F801504BF0200B09F128
:103BB00001094BF0100BFDE4002B40F092860E4BF8
:103BC0000F931BF020019BD11BF0100340F03183B9
:103BD0001BF0400100F02D83099A52F8040B099262
:103BE000194680B294E700BFFFFFEF7F147C010805
:103BF000187C0108387C0108247C0108099C059B7D
:103C000054F8046B00278DF85770002E00F02784BD
:103C10005A1C00F023851A463946304602F0A0FCB3
:103C2000002800F03286831B089323EAE37309948B
:103C300005979DF85740CDF80CB004930A978CE691
:103C4000DDF80CB0012B3FF4D0AE022B00F08880E1
:103C50002AAE00F00703C00840EA4170C9083033BB
:103C600050EA0107324606F8013DF2D11BF0010F80
:103C700000F08480302B00F081803023023A06F877
:103C8000013C2AAB9B1ACDF80CB008931646059B55
:103C9000089A9342B8BF1346049300230A935CE644
:103CA000652D40F3F980DDE90C010022002306F0C8
:103CB0002BF9002800F0E9811E9BC54ACAF80020B4
:103CC000013301340122072B1F941E93CAF80420EC
:103CD00000F36B840AF1080A179B0B9A934280F257
:103CE000BC820E9B109A1C44CAE900231E9B1F94A1
:103CF0000133072B1E9300F3A5830AF1080A0B9BDF
:103D00005D1E002D7FF7C0AD102D1E9BB14F40F3FF
:103D1000408419EE10BA102605E00AF1080A103D99
:103D2000102D40F3368401331034072BCAE9007696
:103D3000CDE91E34F1DD1DAA4146584604F09EF837
:103D400000287FF425ADDDE91E340DF1A80AE6E771
:103D5000012B00F04885022BDDF80CB07FF478AF22
:103D60000F9A2AAE00F00F030009D35C06F8013D5C
:103D700040EA0170090950EA0103F3D12AAB9B1B09
:103D8000CDF80CB0089382E7069B049AA3EB020BD4
:103D9000BBF1000F7FF75DADBBF1100F1E9A8D4F89
:103DA00027DD2146102319EE104A06E0ABF1100B77
:103DB000BBF1100F0AF1080A1ADD01321031072A8F
:103DC000CAE90073CDE91E21F0DD1DAA4146204657
:103DD0000DF1A80A04F052F800287FF4D9ACABF139
:103DE000100BBBF1100FDDE91E214FF01003E4DCD6
:103DF0000C4601325C44072ACDE91E24CAF8007043
:103E0000CAF804B000F3DF830AF1080A21E5BBF128
:103E1000100F1E9A6F4F27DD2146102319EE104A0E
:103E200006E0ABF1100BBBF1100F0AF1080A1ADD26
:103E300001321031072ACAE90073CDE91E21F0DDF5
:103E40001DAA4146204604F019F800287FF4A0ACD2
:103E5000ABF1100BBBF1100FDDE91E210DF1A80A2B
:103E60004FF01003E4DC0C4601325C44072ACDE934
:103E70001E24CAF80070CAF804B000F3CC810AF11D
:103E8000080AEEE419EE100A1DAA414603F0F6FFF7
:103E900000283FF40DAD7BE40B9B012B40F37181B7
:103EA0001E9DCAF80060013501340123072D1F94BF
:103EB0001E95CAF8043000F30C830AF1080A0E9B21
:103EC000109A01351C44072DCAE90023CDE91E5480
:103ED00000F30D830AF1080ADDE90C01002200233A
:103EE00006F012F8002840F06B810B9B0135013B76
:103EF00001361C44072DCAF800601E95CAF804302C
:103F00001F9400F34F810AF1080A119BCAF804308C
:103F100001351C44072D19ABCDE91E54CAF80030F9
:103F20007FF7B0AC19EE100A1DAA414603F0A6FFB8
:103F300000287FF42DAC1F9C0DF1A80AA4E4102FDB
:103F4000DDE91E2134DD1293CDF84C901024B146EA
:103F50000B464646B8462F4619EE105A06E0A8F121
:103F60001008B8F1100F0AF1080A19DD01321A49D8
:103F70001033072ACAE90014CDE91E23EFDD1DAA7C
:103F8000314628460DF1A80A03F078FF00287FF497
:103F9000FEABA8F11008B8F1100FDDE91E23E5DC37
:103FA0003D4619464746129BB0464E46DDF84C90BA
:103FB000CAF8047001327C18072A0749CAF80010B1
:103FC000CDE91E2400F3D5820AF1080A16E400BFE9
:103FD000547C01089C7001088C70010819EE100ACD
:103FE0001DAA4146129303F049FF00287FF4D0AB8D
:103FF0001F9C129B0DF1A80A15E419EE100A1DAAC8
:10400000414603F03BFF00287FF4C2AB1F9C0DF13B
:10401000A80A1AE4102D1E9B20DD19EE107A102636
:1040200004E0103D102D0AF1080A17DD0133914A12
:104030001034072BCAE90026CDE91E34F1DD1DAA94
:10404000414638460DF1A80A03F018FF00287FF416
:104050009FAB103D102DDDE91E34E7DC0133854AAE
:10406000CAF804502C44072BCDE91E34CAF80020AE
:104070007FF713AC19EE100A1DAA414603F0FEFEAD
:1040800000287FF485AB1F9C07E41799002940F3B3
:104090003C82DDE90A379F42A8BF1F46002F0BDD97
:1040A0001E9B01333C44072BCAE900671F941E93F3
:1040B00000F3CB830AF1080A0A9D002FA8BFED1B6D
:1040C000002D00F3D581179D0B9B9D4280F2AE81A0
:1040D0000E9B109A1C44CAE900231E9B1F940133B7
:1040E000072B1E9300F3A3830AF1080A0B9B0A9A7D
:1040F0005D1B9F1AAF42A8BF2F46002F0EDD1E9BEF
:10410000CAF80470013316443C44072BCAF8006017
:104110001F941E9300F3A6830AF1080A002FA8BF7C
:10412000ED1B002D7FF7B0AB102D1E9B524F40F3BF
:10413000308219EE10BA102605E00AF1080A103D87
:10414000102D40F3268201331034072BCAE9007684
:10415000CDE91E34F1DD1DAA4146584603F08EFE1E
:1041600000287FF415ABDDE91E340DF1A80AE6E75F
:10417000059B002B40F037830023059308932AAE5C
:1041800085E5039BD9073FF58BAE1E9DCAF80060FD
:10419000013501340123072D1F941E95CAF8043000
:1041A0007FF7B1AE19EE100A1DAA414603F066FE74
:1041B00000287FF4EDAADDE91E540DF1A80AA4E65B
:1041C0000B9B5E1E002E7FF7A0AE102E2A4F40F3F1
:1041D0005782CDF814904FF0100B19EE109A05E0AD
:1041E0000AF1080A103E102E40F3488201351034BF
:1041F000072DCAE9007BCDE91E54F1DD1DAA414619
:10420000484603F03BFE00287FF4C2AADDE91E54B5
:104210000DF1A80AE6E719EE100A1DAA414603F0BF
:104220002DFE00287FF4B4AA1F9C0DF1A80AFFF709
:1042300018BB099B53F8040B099369E4C1170B469B
:10424000002BBFF6C3AB40424FF02D0461EB4101A0
:104250008DF857400123FFF760BA039BDD077FF518
:1042600013AB3EE599F800500992FFF7A3B92AAEC7
:104270000DE500BF8C7001089C700108DDE90C01A0
:1042800002460B4605F072FE002840F06583059B50
:10429000013325F0200700F0F582472F00F08182DE
:1042A000DDE90C014BF4807200290392C0F24C82CC
:1042B0009DED0C7B00231293B0EE47AAF0EE67AAA7
:1042C000662D00F0E981462D00F0E681B0EE4A0A45
:1042D000F0EE6A0A452F0ABF059B059C5C1C1BABD0
:1042E000019318AB009319EE100A17AB2246022176
:1042F00000F06AFD672D064640F03D821BF0010F7D
:1043000040F03C821B9B472FA3EB06030B9340F02E
:104310006E83179B0A93D91C03DB059A934240F3E3
:104320007882023D0A9A8DF86450531E002B179331
:10433000B6BFC2F101032B222D22092B8DF8652077
:1043400040F3F5820DF17304C04F2246104687FBFF
:104350000321DA17C2EBA10202EB8201A3EB4101B8
:10436000303100F8011C19466329134600F1FF3271
:10437000ECDC3033D9B2831E9C4202F8011C40F2BF
:10438000278313460DF1660201E013F8011B02F8C2
:10439000011B9C42F9D10DF175030DF166021B1A48
:1043A000134419AA9B1A11930B9A119B012A1344C7
:1043B000089340F3C882089B0E9A1344089323EA9B
:1043C000E373049300230A939EE1099B079853F833
:1043D000041B0993C217C1E90002FFF7C9B80A28F4
:1043E00071F100039DF85740FFF404ABCDF80C9039
:1043F0002AAEA1460A22002304460F46FBF774FFAB
:10440000303206F8012D0023204639460A22FBF7F8
:104410006BFF0A2C77F10003ECD22AAB9B1B4C46B6
:104420000893DDF80C90CDF80CB030E4039BD8076E
:104430003FF54EAEDDE90A239F1A5D1BAF42A8BFD0
:104440002F466BE619EE100A1DAA414603F016FD31
:1044500000287FF49DA91F9C0DF1A80A4FE4062BAC
:1044600028BF0623CDE90834794E0493FFF7AFB98E
:10447000102D1E9B774F40F355813A4605964746CF
:1044800019EE106A4FF0100B904605E00AF1080A89
:10449000103D102D40F3428101331034072BCAE93F
:1044A000008BCDE91E34F1DD1DAA3946304603F0FC
:1044B000E5FC002840F04482DDE91E340DF1A80A35
:1044C000E6E7099B079953F8042B11600993FFF75E
:1044D0004FB819EE100A1DAA414603F0CFFC002880
:1044E0007FF456A9DDE91E540DF1A80AE7E419EEA0
:1044F000100A1DAA414603F0C1FC00287FF448A918
:10450000DDE91E540DF1A80AE6E41E9B524ACAF8E2
:104510000020013301340122072B1F941E93CAF897
:10452000042000F31A810AF1080A002959D1039BDB
:104530000B9A03F0010313433FF4A6A90E9B1099B5
:104540001A19CAE900131E9B1F920133072B1E93F1
:1045500000F32D810AF1080A0B99CAF800600133B3
:104560008C18072BCDE91E34CAF804107FF78AA9EE
:10457000D8E419EE100A1DAA4146129303F07EFCFE
:1045800000287FF405A91F9C129B0DF1A80AFFF7D4
:1045900035B901332C44072BCAF80070CAF804500F
:1045A000CDE91E347FF76EA9BCE419EE100A1DAAEE
:1045B000414603F063FC00287FF4EAA81F9C0DF13C
:1045C000A80AFFF789BB19EE100A1DAA414603F09D
:1045D00055FC00287FF4DCA81F9C0DF1A80AFFF70A
:1045E00038B90E9B10981A19CAE900031E9B1F9236
:1045F0000133072B1E9300F3DA800AF1080A002921
:10460000AADA4D421031134F80F2788119EE10BAB8
:10461000102405E00AF1080A103D102D40F36E81C8
:1046200001331032072BCAE90074CDE91E32F1DDE7
:104630001DAA4146584603F021FC00287FF4A8A893
:10464000DDE91E320DF1A80AE6E700BF676666667F
:104650004C7C01089C700108547C01083046099488
:104660000597CDF80CB0FDF76BF920EAE0739DF8E3
:104670005740089004930A97FFF76FB9DDF814903C
:10468000CAF8007001353444072DCDE91E54CAF82C
:1046900004607FF738AC85E5059CB0EE4A0AF0EE81
:1046A0006A0A1BAB019318AB0093224617AB19EEB5
:1046B000100A032100F088FB064604193378302BDA
:1046C00062D0179B1C4451EC1A0B0022002305F00A
:1046D0001BFC002800F08B8023469B1B472F0B936D
:1046E0003FF417AE662D40F08281179B059A0A931E
:1046F000002B0BF0010B40F35C815BEA020140F000
:1047000045810A9B04930893129B002B7BD02D2399
:104710008DF8573000230593FFF722B94246059ED6
:10472000B846174601332C44072BCDE91E34CAF88E
:104730000070CAF8045049DC0AF1080AC3E42D24C9
:104740008DF85740FFF7FBB801F100430AEE903AAD
:104750002D230AEE100A1293B2E519EE100A1DAAD3
:10476000414603F08BFB00287FF412A817991F9C89
:104770000DF1A80AD9E6472D3FF4C0AD3444A2E7B5
:104780008DF85700FFF717B851EC1A0B00220023E1
:1047900005F0BAFB002894D1059BC3F101031793E0
:1047A00090E7059B002B08BF0123059378E519EEE0
:1047B000100A1DAA414603F061FB00287EF4E8AF11
:1047C000DDE91E3217990DF1A80A18E719EE100A53
:1047D0001DAA414603F052FB00287EF4D9AF1F9C6E
:1047E0000DF1A80A6FE4DDF80CB0FFF703B91B9BCD
:1047F000A342BFF472AF30215A1C1B9219701B9B4D
:104800009C42F9D869E7129B9DF857400593FFF742
:10481000A4B8DDE90A32934243DB1BF0010F40F0FC
:10482000AC8023EAE3720492089367256CE719EEE3
:10483000100A1DAA414603F021FB00287EF4A8AF10
:10484000179D1F9C0DF1A80A50E419EE100A1DAA2D
:10485000414603F013FB00287EF49AAF1F9C0DF134
:10486000A80A29E419EE100A1DAA414603F006FB26
:1048700000287EF48DAF179D0B9B1F9C5D1B0DF1D7
:10488000A80A4BE4062305930AE5059B0994CDF895
:104890000CB09DF857400493089305900A90FFF7D9
:1048A0005CB80E9A0B9B13440A9A0893002A75DD94
:1048B00023EAE3730493672526E78DF85700FFF793
:1048C0001AB900220592FEF777BE8DF85700FFF760
:1048D00006B88DF85700FFF74FB98DF85700FFF76E
:1048E000CCB88DF85700FFF76AB98DF85700FFF77D
:1048F0005DB84FF0FF330793FEF74FBF01332A44F3
:10490000072BCDE91E32CAF80070CAF804507FF7B1
:1049100021AE19EE100A1DAA414603F0AFFA002895
:104920007EF436AFDDE91E320DF1A80A14E630330D
:104930008DF8673030238DF866300423119333E50A
:10494000B846FEF725BF1BF001020A927FF433AD93
:1049500023EAE3730493D7E60D9B264E002BB8BFE2
:104960002D242BF080030393A8BF9DF85740224BC2
:10497000B8BF8DF85740FEF7E7BF0A9B0E9A134465
:10498000089323EAE37304936725BDE60E990B446D
:104990001A4422EAE27308920493B5E60A9B089A45
:1049A000C3F101031A4422EAE273089204936725D3
:1049B000AAE65BEA020303D1012304930893A3E66A
:1049C0000E9B01331A4422EAE273089204939BE699
:1049D00002231193E8E4099A99F80150894652F8A4
:1049E000041B099241EAE1710591FEF7E3BD179BB3
:1049F0000A9397E41C7C0108207C010810B4054C44
:104A00008446134620685DF8044B0A466146FEF76B
:104A10006BBD00BF0000002070B50C468989ADF564
:104A20008D6D21F00201ADF80C10616E1991E189D4
:104A3000ADF80E10E1690791616A09911AA9009118
:104A400004914FF48061029105910021069169461D
:104A50000646FEF749FD051E07DB6946304601F0B4
:104A6000EDF9002818BF4FF0FF35BDF80C305B069C
:104A700003D5A38943F04003A38128460DF58D6D2E
:104A800070BD00BF10B51A4C002924689AB02ADB0B
:104A9000009004904FF40270ADF80C0013D001396F
:104AA0004FF6FF7002910591ADF80E006946204661
:104AB000FDF7BAFA421C01DA8B232360009B002227
:104AC0001A701AB010BD4FF6FF7002910591ADF843
:104AD0000E0069462046FDF7A7FA431C01DA8B2336
:104AE00023601AB010BD8B2323604FF0FF30F8E72E
:104AF0000000002030B5141E9BB005462CDB4FF49F
:104B0000027200910491ADF80C2014D04FF6FF71A1
:104B10001A46013CADF80E101E9B0294694605949E
:104B2000FDF782FA421C01DA8B232B60009B0022E6
:104B30001A701BB030BD4FF6FF711A46ADF80E105B
:104B40001E9B029469460594FDF76EFA431C01DA38
:104B50008B232B601BB030BD8B2303604FF0FF30E5
:104B6000F8E700BF38B5334B1B6805460C460BB160
:104B70009A6B12B3B4F90C3018079AB225D5216993
:104B800000292DD012F0010007D00020A06060693C
:104B90004042A06139B1002038BD950758BF606917
:104BA000A0600029F7D1120658BF0846F4D543F09B
:104BB0004003A3814FF0FF3038BD184601F068FA7A
:104BC000B4F90C3018079AB2D9D4D1062AD55207B5
:104BD00014D4216943F00803A3819AB20029D1D1EA
:104BE00002F42070B0F5007FCCD02146284601F0B9
:104BF00013FCB4F90C3021699AB2C3E7216B51B1AF
:104C000004F14002914204D0284601F0B1FAB4F90F
:104C10000C300022226321690022C4E9001223F033
:104C20002403D7E7092243F040032A604FF0FF3006
:104C3000A38138BD0000002070B4184C2568D5F859
:104C400048411CB365681F2D25DC38B9AB1C013504
:104C5000656044F82310002070BC704704EB850C9D
:104C60000228CCF88820D4F888614FF0010202FABB
:104C700005F246EA0206C4F88861CCF80831E5D1AD
:104C8000D4F88C311343C4F88C31DFE705F5A674F2
:104C9000C5F84841D6E74FF0FF30DDE768700108FE
:104CA0002DE9F04F03690C69A34283B0C0F28780FD
:104CB000013C01F11405A30000F11408009355F81C
:104CC000243058F82420013381469A4208EB8400AE
:104CD00005EB84070190B2FBF3F63BD30023AE460D
:104CE00040469B465EF804AB02681FFA8AFC06FB4E
:104CF0000C334FEA134C4FEA1A4A06FB0ACA1FFA52
:104D000083FCABEB0C0C1FFA8AF31CFA82FCC3EB9E
:104D1000124202EB2C421FFA8CFC4CEA024377450C
:104D200040F8043B4FEA224B4FEA1A43DAD2009B89
:104D300058F8033073B9019B043B984504D307E04E
:104D4000984504F1FF3403D253F80429002AF7D020
:104D5000C9F81040484601F0E3FF00282BDB01367C
:104D60004046002355F8041BD0F800C08AB29A1AB6
:104D70000B0C12FA8CF2C3EB1C4303EB224392B2EE
:104D800042EA0342AF4240F8042B4FEA2343E9D200
:104D900058F8242008EB84036AB9043B984504D3EF
:104DA00007E0984504F1FF3403D253F80429002AA0
:104DB000F7D0C9F81040304603B0BDE8F08F0020AE
:104DC00003B0BDE8F08F00BF2DE9F04F2DED068B4D
:104DD00095B08DED020B0191016C249D099259EC67
:104DE000108B0446069341B1426C4A600123934004
:104DF0008B6001F0D9FC00232364B9F1000AB4BF31
:104E0000012300232B607C4BBCBF2AF0004ACDF865
:104E10000CA033EA0A0300F0B2809DED027B002271
:104E200051EC170BB0EE479AF0EE679A002305F0AD
:104E30006BF8074680B1069A01231360259B002B6F
:104E400000F0DB826D481860431E0093009815B097
:104E5000BDEC068BBDE8F08F12AA13A92046B0EE78
:104E6000490AF0EE690A02F0B3F8B0EE498AF0EEB2
:104E7000698A5FEA1A56054640F09980DDE91276A4
:104E80003E4406F23240202840F3AB83C0F140009C
:104E90000AFA00FA06F2124028FA00F04AEA000084
:104EA00004F050FD0123013E0D93A1F1F871544B24
:104EB000002204F009FC4AA3D3E9002304F0BCFD5E
:104EC00049A3D3E9002304F001FC8046304689461B
:104ED00004F048FD46A3D3E9002304F0ADFD0246EB
:104EE0000B464046494604F0F1FB8046894605F0F2
:104EF00053F80022834600234046494605F00EF849
:104F0000002840F06D82BBF1160F00F25C823D4B31
:104F100003EBCB03D3E9002351EC190B04F0FEFFA4
:104F2000002875D00023BE1B0C93731E0BF1FF3BB2
:104F3000049300F14F8200230893BBF1000F6EDA57
:104F4000089BCDF814B0A3EB0B030893CBF100033F
:104F50000B93019B092B4FF0000B69D8052B40F3F5
:104F60003E83043B01930026019B023B032B00F28E
:104F70009986DFE813F04E044B0443042604069A96
:104F800042F20F73CAF3130A13605AEA08031DD1E1
:104F9000259B002B00F07D861B4B00930833259A40
:104FA0000098136015B0BDEC068BBDE8F08F18EECD
:104FB000903AC3F3130351EC190B43F07F510D9753
:104FC000A6F2FF36129F41F4401170E7259B002B9B
:104FD00040F0DB830D4B009338E700BFAFF3008058
:104FE00061436F63A787D23FB3C8608B288AC63FEF
:104FF000FB799F501344D33F0000F07F557C01089C
:105000000000F83FC07001085C7C0108587C010872
:10501000BE1B731E049300F19A840C900890049BAD
:105020005B44CDE9043B00230B93019B092B95D9ED
:10503000002301264FF0FF3201930A96079209934D
:10504000079B0F9300216164204601F087FB0090CD
:10505000002800F02F86009B2364079B0E2B00F294
:10506000F980002E00F0F6800599002940F3718444
:10507000BD4B01F00F0203EBC2034FEA2118C90533
:10508000D3E9006740F10384B84B51EC190BD3E925
:10509000082304F0FBFD41EC180B08F00F084FF05B
:1050A000030AB8F1000F13D0DFF8C09218F0010F17
:1050B00009D030463946D9E9002304F0BDFC0AF195
:1050C000010A06460F465FEA680809F10809EDD1B2
:1050D00051EC180B32463B4604F0D8FD41EC1A0B5C
:1050E0000C9B5BB157EC1A6BA14B1AEE100A002215
:1050F000394604F013FF002840F05285504604F072
:1051000031FC53EC1A2B04F097FC9A4B002204F06C
:10511000DDFA079B8046A1F15079002B00F0F38364
:10512000059B1093079B0E930A9B002B00F0C084F5
:105130000E9A8D4B9049DDF800A003EBC20353E9B2
:105140000223002004F0A2FD42464B4604F0BCFAC4
:1051500059EC1A8B41EC180B49461AEE100A04F070
:105160001BFF074604F0FEFB02460B461AEE100A30
:10517000494604F0A9FA30370AF8017B53EC182BA2
:1051800006460F4604F0CAFE002840F055854FF051
:1051900000080AEE105ACDF844B055465BEC18AB47
:1051A00008EE104A44462AE00E9B01349C424BDA3A
:1051B000724B50465946002204F03EFC6F4B0022D1
:1051C00082468B463046394604F036FC8946804696
:1051D00004F0E2FE074604F0C5FB02460B464046DB
:1051E000494604F071FA303705F8017B52465B46B8
:1051F00006460F4604F092FE002840F0188532461D
:105200003B465B49002004F05FFA52465B4604F0DF
:1052100085FE0028C8D0109B009A0593AA4618EE78
:10522000104A1AEE105A02E0924500F0EA84D14684
:105230001AF8013D392BF7D00133DBB28AF8003080
:10524000059B01330593ABE1DDF844B01AEE105A2B
:1052500018EE104A139B002BC0F29480059A0E2A78
:1052600000F39080404B03EBC203D3E90089099B14
:10527000002B1BDA079B002B18DC40F05D83404BB2
:1052800000224046494604F0D7FB02460B4651EC4B
:10529000190B04F04DFEDDF81CA05646002800F066
:1052A000D082099BDDF80080DF43D2E242464B46C4
:1052B00051EC190B04F0EAFC04F06EFE064683463E
:1052C00004F050FB42464B4604F0B6FB0B46024648
:1052D00051EC190B04F0F8F9DDF800A03346303337
:1052E0000AF8013B079B012B00F08E834FF0010B66
:1052F00008EE105A08EE904A1D465446DA461DE064
:1053000042464B463046394604F0C0FC04F044FEA9
:10531000834604F027FB42464B4604F08DFB0AF11E
:10532000010A0B4602463946304604F0CDF90BF12E
:105330003003AA4504F8013B00F061830F4B0022C3
:1053400004F07AFB0022002306460F4604F0DCFD41
:105350000028D5D0A24618EE105A18EE904A059BA8
:1053600001330593D1461BE1C0700108B0710108FB
:105370000000F03F00001C400000E03F000024401F
:10538000000014400A9A002A3FD0019A012A40F3F3
:105390009C82079B03F1FF380B9B4345C0F26E8252
:1053A000A3EB0808079B002BC0F26683049A1A44FB
:1053B0000492089A17461A4408920121204601F0E7
:1053C000FBFA064625E00123BE1B0C93731E0493D3
:1053D0007FF5B1ADC6F10103089300230493ACE55A
:1053E000584604F0BFFA42464B4604F08DFD0028B3
:1053F0007FF489AD0BF1FF3B85E5874B0093009867
:1054000015B0BDEC068BBDE8F08FDDF82C80089F51
:105410000A9E002F0CDD049A002A09DD0899BA4281
:105420001346A8BF3B46C91AFF1AD31A0891049322
:105430000B9BDBB10A9B002B00F08282B8F1000FBE
:105440000FDD31464246204601F092FB2A460146D6
:105450000646204601F0DEFA29460546204601F0C0
:10546000A3F90B9BB3EB080240F000830121204617
:1054700001F0A2FABBF1000F824600F3B780019B56
:10548000012B40F386814FF000080120BBF1000F93
:1054900040F0B880049A104410F01F0000F096808D
:1054A000C0F12003042B40F3F883089BC0F11C00DB
:1054B00003440244089307440492089B002B05DD33
:1054C00029461A46204601F0B3FB0546049B002BF3
:1054D00005DD51461A46204601F0AAFB82460C9B88
:1054E000002B40F03781079B002B40F31E810A9B65
:1054F000002B40F0A180059B01330593DDF800806F
:10550000DDF81C90012707E0294600230A222046E7
:1055100001F054F90137054651462846FFF7C0FB14
:105520004F4500F1300008F8010BEDDB079A002A27
:10553000C8BF9346009AD8BF4FF0010B034693446F
:105540000027294601222046019301F071FB5146B4
:10555000054601F0E5FB002840F3A5811BF8013C5E
:10556000009A0BF1FF3B04E05A4500F0A7811BF8BD
:10557000013D392B0BF10109F6D001338BF80030D6
:105580005146204601F010F956B12FB1B74203D071
:105590003946204601F008F93146204601F004F969
:1055A0002946204601F000F9002389F80030DDE9A2
:1055B00005231A60259B002B3FF448AC0098C3F8E4
:1055C000009015B0BDEC068BBDE8F08F1C20089B49
:1055D00003440893049B0344074404936DE70126A6
:1055E000C2E4C0F1200008FA00F059E401465A462E
:1055F000204601F0BDFA019B012B824640F3D58184
:105600004FF00008DAF810300AEB8303186901F054
:1056100083F9C0F120003DE7547C010831460023A6
:105620000A22204601F0CAF80F9B002B064640F3E1
:105630002383CDF814900793002F00F31881B8F15D
:10564000000F40F0FC81B046029B009F079903F0D9
:1056500001027B1E1944019B0A921343089109938E
:1056600051462846FFF71CFB31468346284601F089
:1056700057FB424651468146204601F073FBC26803
:1056800001460BF13003002A42D1049028460793CB
:1056900001F046FB04990290204601F085F8029A39
:1056A000079B1AB90999002900F0D682B9F1000FB9
:1056B000C0F28781019949EA01090A9951EA090171
:1056C00000F07F81002A00F3E781089A3B7007F120
:1056D00001099742CB4600F0E581294600230A22C2
:1056E000204601F06BF84645054631464FF0000371
:1056F0004FF00A02204612D001F060F841460646FB
:1057000000230A22204601F059F84F468046A7E7B9
:105710002046029301F048F8029B0122C6E701F0FF
:105720004DF84F46064680469AE7019B022B77DCF0
:105730000A9B002B80D1059B5146013328460593D7
:10574000FFF7AEFADDF800B000F130030BF8013BD3
:105750000027F6E65146284601F0E2FA0028BFF697
:10576000C2AE294600230A22204601F027F8059BF5
:1057700003F1FF390A9B0546002B7FF44FAF0F9BC7
:10578000002B40F370820793B8E6BD4B00930333C0
:1057900005E4DDE9021200297FF475AEC2F31303BC
:1057A000002B7FF470AEB74B1340002B00F03D820E
:1057B000089B01330893049B013304934FF00108C5
:1057C00063E601230A93099B059A13440F9301335F
:1057D000012B1F460793B8BF01270021172F6164D3
:1057E0007FF732AC012204235B0003F11400B842BE
:1057F000114602F10102F7D9616425E401230A93FD
:10580000099F002F4ADD0F970797E6E700230A93C9
:10581000D9E700230A93F3E70F9BCDF81490079381
:10582000079B002B7FF43DAD51460522204600F03A
:10583000C5FF01468246284601F072FA00287FF72C
:1058400030AD0098059F3123804600F8013B0137B9
:1058500000905146204600F0A7FF7B1CDDF8009029
:105860000593CDF80080002E7FF496AE98E6314681
:105870003A46204601F0DCF90646E0E60B9BCDF8FF
:105880002C80A8EB03039B444FF000088AE54FF0FF
:10589000020AB0EE498AF0EE698A02E40123099314
:1058A0000793FFF7CDBB03D1019BDB073FF556AE56
:1058B000D9461BF8013D302BFAD061E6059B009AD2
:1058C00001330593312313705AE60D9A002A00F034
:1058D000638103F23343049ADDF82C801A44049266
:1058E000089A17461A44089267E5504604F03AF8B9
:1058F00053EC1A2B04F0A0F8634B002203F0E6FEF1
:105900008046A1F15079614B002251EC1A0B03F053
:10591000DBFE42464B4606460F4604F01DFB0028C0
:1059200040F07F8130463946424609F1004304F099
:10593000F5FA00283FF48EAC4FF0000A5646B0E46A
:1059400029460B9A204601F013F905468EE50C9086
:1059500040E500F04E81059A4D4B564206F00F028D
:1059600003EBC203D3E9002351EC190B04F064F8F4
:10597000361141EC1A0B00F08881464F00234FF09E
:10598000020AF20706D5D7E9002304F055F80AF118
:10599000010A0123761007F10807F2D1002B3FF42A
:1059A0009FAB41EC1A0BFFF79BBB029B002B7FF4D4
:1059B00027AEDDE90212C2F31303002B3FF4F3AE6E
:1059C0001EE6002A12DD294601222046019301F03D
:1059D0002FF95146054601F0A3F90028019B40F339
:1059E0003581392B00F013810BF13103B94609F8E9
:1059F000013B059B0133374605934646C0E5A24669
:105A000018EE105A18EE904A02460B4603F05EFE5E
:105A100042464B4606460F4604F09EFA60B942469F
:105A20004B463046394604F06FFA00283FF497ACF5
:105A30005FEACB717FF593AC009AFFF7F8BB716812
:105A4000204600F08BFE0746002800F03A813369BB
:105A500002339A0006F10C010C30FBF765F9394668
:105A60000122204601F0E4F88046EDE52946204673
:105A700001F07EF80546F9E4DDE907239F1A9CE46E
:105A8000587C01080000F07F00001C40000014401A
:105A9000C0700108B0710108392B00F0B880B94618
:105AA0000133A4E7059A013237460592464648E598
:105AB0000E988D4901EBC00142464B4651E9020167
:105AC00003F0BAFF5AEC1A9B41EC180B51461AEE40
:105AD000100A04F061FA074603F044FF02460B4641
:105AE0001AEE100A514603F0EFFD06460E98DDF857
:105AF00000803037012808F8017B0F4600F0BA809B
:105B00000E9B009ACDF838B013449B46C246774BA3
